:02000000803A44
:10000B00758A07758C4CD8287814D924793C0DBD8A
:10001B000A1E7D000CBC06187C000BBA021280066F
:10002B00BB0A0D7B000ABA0207BB04047B007A00F3
:10003B003275800075900F75A00075B0007814793B
:10004B003C7A007B007C007D00755000755100757B
:10005B00520075530075A882758901758A07758CD6
:10006B004CC28DD28C119E3156119EEA3113119ECA
:10007B003156119EEB3113119E3156EC3113119EFB
:10008B003156119EED31133156740171EC71F5112E
:10009B009E80D275907FE5905407B40701221350D0
:1000AB00051350C171987401E5905407B407F951C9
:1000BB00D75187AD355187AC355187AB355187AAB1
:1000CB003575907FE5905407D2D71340F4C2D7BD56
:1000DB000A0280D050CEC2D7BC060280C750C5BA28
:1000EB00020BC2D7BB040280BB50B98012C2D7BB74
:1000FB000A0280B050AEC2D7BA020280A750A5E563
:10010B00905407B407F90170B40002316FB40104C5
:10011B0031868036B40204319F802FB4030431BE84
:10012B008028B4040431D58021B4050431FC801A35
:10013B00B40604511B8013B40704513A800CB40865
:05014B00045151800584
:10015000B409025168227540027541FF7542FF756E
:10016000B00075A000D542F7D541F1D540EB22751E
:10017000406475B0BE75A07071F575B0C175A0888A
:1001800071F5D540ED227540037541FF7542FF754D
:10019000B08075A080D542F7D541F1D540EB2275EE
:1001A000403275B0B675A07071F575B0F975A08064
:1001B00071F575B08F75A00871F5D540E5227540D1
:1001C0006475B0B675A07871F575B0C975A0807109
:1001D000F5D540ED2275403275B0F875A00871F57F
:1001E00075B0F775A07071F575B0F875A08071F5F0
:1001F00075B08F75A08071F5D540DD2275403275E0
:10020000B0B675A07071F575B0F975A00871F57587
:10021000B08F75A08071F5D540E52275403275B07C
:10022000B675A07071F575B0F975A00871F575B067
:10023000CF75A08871F5D540E52275406475B0FE94
:1002400075A07871F575B08175A08071F5D540ED18
:100250002275406475B0B675A07071F575B0C9753A
:10026000A08871F5D540ED2275403275B0B675A005
:100270007071F575B0F975A08871F575B0CF75A07E
:100280008071F5D540E52275900F7530077531EF17
:10029000753200753300853190E5905530B5300FDB
:1002A000E53123F531E53204F532B404E980DE713D
:1002B000F513500BF537E53304F533E53780F27469
:0702C000038532F0A4253391
:1002C7009003FE93F535E5905530B530F971F52279
:1002D700743871EC71F5740E71EC71F5740171EC91
:1002E70071F5740671EC71F5748071EC71F57445F4
:1002F70071E371F5746E71E371F5747471E371F5FF
:10030700746571E371F5747271E371F5742071E3CB
:1003170071F5747471E371F5746871E371F574655F
:1003270071E371F5742071E371F5747471E371F51C
:10033700746971E371F5746D71E371F5746571E357
:1003470071F5742171E371F5742071E371F5742807
:1003570071E371F5744D71E371F5744971E371F5EA
:10036700744E71E371F5742071E371F5744671E3AE
:1003770071F5744971E371F5745271E371F5745352
:1003870071E371F5745471E371F5742971E371F5D3
:1003970022743871EC71F5740E71EC71F57401719A
:1003A700EC71F5740671EC71F5748071EC71F5748C
:1003B7004571E371F5747271E371F5747271E371EC
:1003C700F5746F71E371F5747271E3742171E37100
:1003D700F571F571F571F571F571F522F580D2A01A
:0903E700D2A1C2A122F580C2A03E
:1003F000D2A1C2A1227E0A7FFFDFFEDEFA22010225
:0A040000030405060708092A00237B
:00000001FF
